{
  "_format": "hh-sol-artifact-1",
  "contractName": "CrowdFunding",
  "sourceName": "contracts/CrowdFunding.sol",
  "abi": [
    {
      "inputs": [
        {
          "internalType": "uint256",
          "name": "",
          "type": "uint256"
        }
      ],
      "name": "campaigns",
      "outputs": [
        {
          "internalType": "address",
          "name": "owner",
          "type": "address"
        },
        {
          "internalType": "string",
          "name": "title",
          "type": "string"
        },
        {
          "internalType": "string",
          "name": "description",
          "type": "string"
        },
        {
          "internalType": "uint256",
          "name": "target",
          "type": "uint256"
        },
        {
          "internalType": "uint256",
          "name": "deadline",
          "type": "uint256"
        },
        {
          "internalType": "uint256",
          "name": "amountCollected",
          "type": "uint256"
        }
      ],
      "stateMutability": "view",
      "type": "function"
    },
    {
      "inputs": [
        {
          "internalType": "address",
          "name": "_owner",
          "type": "address"
        },
        {
          "internalType": "string",
          "name": "_title",
          "type": "string"
        },
        {
          "internalType": "string",
          "name": "_description",
          "type": "string"
        },
        {
          "internalType": "uint256",
          "name": "_target",
          "type": "uint256"
        },
        {
          "internalType": "uint256",
          "name": "_deadline",
          "type": "uint256"
        }
      ],
      "name": "createCampaign",
      "outputs": [
        {
          "internalType": "uint256",
          "name": "",
          "type": "uint256"
        }
      ],
      "stateMutability": "nonpayable",
      "type": "function"
    },
    {
      "inputs": [
        {
          "internalType": "uint256",
          "name": "_id",
          "type": "uint256"
        }
      ],
      "name": "donateToCampaign",
      "outputs": [],
      "stateMutability": "payable",
      "type": "function"
    },
    {
      "inputs": [],
      "name": "getAllCampaigns",
      "outputs": [
        {
          "components": [
            {
              "internalType": "address",
              "name": "owner",
              "type": "address"
            },
            {
              "internalType": "string",
              "name": "title",
              "type": "string"
            },
            {
              "internalType": "string",
              "name": "description",
              "type": "string"
            },
            {
              "internalType": "uint256",
              "name": "target",
              "type": "uint256"
            },
            {
              "internalType": "uint256",
              "name": "deadline",
              "type": "uint256"
            },
            {
              "internalType": "uint256",
              "name": "amountCollected",
              "type": "uint256"
            },
            {
              "internalType": "address[]",
              "name": "donators",
              "type": "address[]"
            },
            {
              "internalType": "uint256[]",
              "name": "donations",
              "type": "uint256[]"
            }
          ],
          "internalType": "struct CrowdFunding.Campaign[]",
          "name": "",
          "type": "tuple[]"
        }
      ],
      "stateMutability": "view",
      "type": "function"
    },
    {
      "inputs": [],
      "name": "getCampaigns",
      "outputs": [
        {
          "components": [
            {
              "internalType": "address",
              "name": "owner",
              "type": "address"
            },
            {
              "internalType": "string",
              "name": "title",
              "type": "string"
            },
            {
              "internalType": "string",
              "name": "description",
              "type": "string"
            },
            {
              "internalType": "uint256",
              "name": "target",
              "type": "uint256"
            },
            {
              "internalType": "uint256",
              "name": "deadline",
              "type": "uint256"
            },
            {
              "internalType": "uint256",
              "name": "amountCollected",
              "type": "uint256"
            },
            {
              "internalType": "address[]",
              "name": "donators",
              "type": "address[]"
            },
            {
              "internalType": "uint256[]",
              "name": "donations",
              "type": "uint256[]"
            }
          ],
          "internalType": "struct CrowdFunding.Campaign[]",
          "name": "",
          "type": "tuple[]"
        }
      ],
      "stateMutability": "view",
      "type": "function"
    },
    {
      "inputs": [
        {
          "internalType": "uint256",
          "name": "_id",
          "type": "uint256"
        }
      ],
      "name": "getDonators",
      "outputs": [
        {
          "internalType": "address[]",
          "name": "",
          "type": "address[]"
        },
        {
          "internalType": "uint256[]",
          "name": "",
          "type": "uint256[]"
        }
      ],
      "stateMutability": "view",
      "type": "function"
    },
    {
      "inputs": [],
      "name": "numberOfCampaign",
      "outputs": [
        {
          "internalType": "uint256",
          "name": "",
          "type": "uint256"
        }
      ],
      "stateMutability": "view",
      "type": "function"
    }
  ],
  "bytecode": "0x6080604052600060015534801561001557600080fd5b50611964806100256000396000f3fe6080604052600436106100705760003560e01c806342a4fda81161004e57806342a4fda81461013257806386cdf6041461014e578063a6b0363314610179578063ab4a0b32146101a457610070565b8063075843c3146100755780630fa91fa9146100b2578063141961bc146100f0575b600080fd5b34801561008157600080fd5b5061009c60048036038101906100979190610ce1565b6101cf565b6040516100a99190610da3565b60405180910390f35b3480156100be57600080fd5b506100d960048036038101906100d49190610dbe565b6102e3565b6040516100e7929190610f67565b60405180910390f35b3480156100fc57600080fd5b5061011760048036038101906101129190610dbe565b6103f3565b6040516101299695949392919061102c565b60405180910390f35b61014c60048036038101906101479190610dbe565b61055f565b005b34801561015a57600080fd5b5061016361074b565b604051610170919061134a565b60405180910390f35b34801561018557600080fd5b5061018e610a83565b60405161019b919061134a565b60405180910390f35b3480156101b057600080fd5b506101b9610a92565b6040516101c69190610da3565b60405180910390f35b600080600080600154815260200190815260200160002090504281600401541061022e576040517f08c379a0000000000000000000000000000000000000000000000000000000008152600401610225906113de565b60405180910390fd5b868160000160006101000a81548173ffffffffffffffffffffffffffffffffffffffff021916908373ffffffffffffffffffffffffffffffffffffffff16021790555085816001019081610282919061160a565b5084816002019081610294919061160a565b5083816003018190555082816004018190555060008160050181905550600160008154809291906102c49061170b565b9190505550600180546102d79190611753565b91505095945050505050565b6060806000808481526020019081526020016000206006016000808581526020019081526020016000206007018180548060200260200160405190810160405280929190818152602001828054801561039157602002820191906000526020600020905b8160009054906101000a900473ffffffffffffffffffffffffffffffffffffffff1673ffffffffffffffffffffffffffffffffffffffff1681526020019060010190808311610347575b50505050509150808054806020026020016040519081016040528092919081815260200182805480156103e357602002820191906000526020600020905b8154815260200190600101908083116103cf575b5050505050905091509150915091565b60006020528060005260406000206000915090508060000160009054906101000a900473ffffffffffffffffffffffffffffffffffffffff169080600101805461043c9061142d565b80601f01602080910402602001604051908101604052809291908181526020018280546104689061142d565b80156104b55780601f1061048a576101008083540402835291602001916104b5565b820191906000526020600020905b81548152906001019060200180831161049857829003601f168201915b5050505050908060020180546104ca9061142d565b80601f01602080910402602001604051908101604052809291908181526020018280546104f69061142d565b80156105435780601f1061051857610100808354040283529160200191610543565b820191906000526020600020905b81548152906001019060200180831161052657829003601f168201915b5050505050908060030154908060040154908060050154905086565b600034116105a2576040517f08c379a0000000000000000000000000000000000000000000000000000000008152600401610599906117f9565b60405180910390fd5b60003490506000806000848152602001908152602001600020905042816004015411610603576040517f08c379a00000000000000000000000000000000000000000000000000000000081526004016105fa90611865565b60405180910390fd5b80600601339080600181540180825580915050600190039060005260206000200160009091909190916101000a81548173ffffffffffffffffffffffffffffffffffffffff021916908373ffffffffffffffffffffffffffffffffffffffff1602179055508060070182908060018154018082558091505060019003906000526020600020016000909190919091505560008160000160009054906101000a900473ffffffffffffffffffffffffffffffffffffffff1673ffffffffffffffffffffffffffffffffffffffff16836040516106dd906118b6565b60006040518083038185875af1925050503d806000811461071a576040519150601f19603f3d011682016040523d82523d6000602084013e61071f565b606091505b505090508015610745578282600501600082825461073d91906118cb565b925050819055505b50505050565b6060600060015467ffffffffffffffff81111561076b5761076a610b80565b5b6040519080825280602002602001820160405280156107a457816020015b610791610a98565b8152602001906001900390816107895790505b50905060005b600154811015610a7b57600080828152602001908152602001600020604051806101000160405290816000820160009054906101000a900473ffffffffffffffffffffffffffffffffffffffff1673ffffffffffffffffffffffffffffffffffffffff1673ffffffffffffffffffffffffffffffffffffffff1681526020016001820180546108389061142d565b80601f01602080910402602001604051908101604052809291908181526020018280546108649061142d565b80156108b15780601f10610886576101008083540402835291602001916108b1565b820191906000526020600020905b81548152906001019060200180831161089457829003601f168201915b505050505081526020016002820180546108ca9061142d565b80601f01602080910402602001604051908101604052809291908181526020018280546108f69061142d565b80156109435780601f1061091857610100808354040283529160200191610943565b820191906000526020600020905b81548152906001019060200180831161092657829003601f168201915b50505050508152602001600382015481526020016004820154815260200160058201548152602001600682018054806020026020016040519081016040528092919081815260200182805480156109ef57602002820191906000526020600020905b8160009054906101000a900473ffffffffffffffffffffffffffffffffffffffff1673ffffffffffffffffffffffffffffffffffffffff16815260200190600101908083116109a5575b5050505050815260200160078201805480602002602001604051908101604052809291908181526020018280548015610a4757602002820191906000526020600020905b815481526020019060010190808311610a33575b505050505081525050828281518110610a6357610a626118ff565b5b602002602001018190525080806001019150506107aa565b508091505090565b6060610a8d61074b565b905090565b60015481565b604051806101000160405280600073ffffffffffffffffffffffffffffffffffffffff168152602001606081526020016060815260200160008152602001600081526020016000815260200160608152602001606081525090565b6000604051905090565b600080fd5b600080fd5b600073ffffffffffffffffffffffffffffffffffffffff82169050919050565b6000610b3282610b07565b9050919050565b610b4281610b27565b8114610b4d57600080fd5b50565b600081359050610b5f81610b39565b92915050565b600080fd5b600080fd5b6000601f19601f8301169050919050565b7f4e487b7100000000000000000000000000000000000000000000000000000000600052604160045260246000fd5b610bb882610b6f565b810181811067ffffffffffffffff82111715610bd757610bd6610b80565b5b80604052505050565b6000610bea610af3565b9050610bf68282610baf565b919050565b600067ffffffffffffffff821115610c1657610c15610b80565b5b610c1f82610b6f565b9050602081019050919050565b82818337600083830152505050565b6000610c4e610c4984610bfb565b610be0565b905082815260208101848484011115610c6a57610c69610b6a565b5b610c75848285610c2c565b509392505050565b600082601f830112610c9257610c91610b65565b5b8135610ca2848260208601610c3b565b91505092915050565b6000819050919050565b610cbe81610cab565b8114610cc957600080fd5b50565b600081359050610cdb81610cb5565b92915050565b600080600080600060a08688031215610cfd57610cfc610afd565b5b6000610d0b88828901610b50565b955050602086013567ffffffffffffffff811115610d2c57610d2b610b02565b5b610d3888828901610c7d565b945050604086013567ffffffffffffffff811115610d5957610d58610b02565b5b610d6588828901610c7d565b9350506060610d7688828901610ccc565b9250506080610d8788828901610ccc565b9150509295509295909350565b610d9d81610cab565b82525050565b6000602082019050610db86000830184610d94565b92915050565b600060208284031215610dd457610dd3610afd565b5b6000610de284828501610ccc565b91505092915050565b600081519050919050565b600082825260208201905092915050565b6000819050602082019050919050565b610e2081610b27565b82525050565b6000610e328383610e17565b60208301905092915050565b6000602082019050919050565b6000610e5682610deb565b610e608185610df6565b9350610e6b83610e07565b8060005b83811015610e9c578151610e838882610e26565b9750610e8e83610e3e565b925050600181019050610e6f565b5085935050505092915050565b600081519050919050565b600082825260208201905092915050565b6000819050602082019050919050565b610ede81610cab565b82525050565b6000610ef08383610ed5565b60208301905092915050565b6000602082019050919050565b6000610f1482610ea9565b610f1e8185610eb4565b9350610f2983610ec5565b8060005b83811015610f5a578151610f418882610ee4565b9750610f4c83610efc565b925050600181019050610f2d565b5085935050505092915050565b60006040820190508181036000830152610f818185610e4b565b90508181036020830152610f958184610f09565b90509392505050565b610fa781610b27565b82525050565b600081519050919050565b600082825260208201905092915050565b60005b83811015610fe7578082015181840152602081019050610fcc565b60008484015250505050565b6000610ffe82610fad565b6110088185610fb8565b9350611018818560208601610fc9565b61102181610b6f565b840191505092915050565b600060c0820190506110416000830189610f9e565b81810360208301526110538188610ff3565b905081810360408301526110678187610ff3565b90506110766060830186610d94565b6110836080830185610d94565b61109060a0830184610d94565b979650505050505050565b600081519050919050565b600082825260208201905092915050565b6000819050602082019050919050565b600082825260208201905092915050565b60006110e382610fad565b6110ed81856110c7565b93506110fd818560208601610fc9565b61110681610b6f565b840191505092915050565b600082825260208201905092915050565b600061112d82610deb565b6111378185611111565b935061114283610e07565b8060005b8381101561117357815161115a8882610e26565b975061116583610e3e565b925050600181019050611146565b5085935050505092915050565b600082825260208201905092915050565b600061119c82610ea9565b6111a68185611180565b93506111b183610ec5565b8060005b838110156111e25781516111c98882610ee4565b97506111d483610efc565b9250506001810190506111b5565b5085935050505092915050565b6000610100830160008301516112086000860182610e17565b506020830151848203602086015261122082826110d8565b9150506040830151848203604086015261123a82826110d8565b915050606083015161124f6060860182610ed5565b5060808301516112626080860182610ed5565b5060a083015161127560a0860182610ed5565b5060c083015184820360c086015261128d8282611122565b91505060e083015184820360e08601526112a78282611191565b9150508091505092915050565b60006112c083836111ef565b905092915050565b6000602082019050919050565b60006112e08261109b565b6112ea81856110a6565b9350836020820285016112fc856110b7565b8060005b85811015611338578484038952815161131985826112b4565b9450611324836112c8565b925060208a01995050600181019050611300565b50829750879550505050505092915050565b6000602082019050818103600083015261136481846112d5565b905092915050565b7f54686520646561646c696e65206d75737420626520696e20746865206675747560008201527f7265000000000000000000000000000000000000000000000000000000000000602082015250565b60006113c8602283610fb8565b91506113d38261136c565b604082019050919050565b600060208201905081810360008301526113f7816113bb565b9050919050565b7f4e487b7100000000000000000000000000000000000000000000000000000000600052602260045260246000fd5b6000600282049050600182168061144557607f821691505b602082108103611458576114576113fe565b5b50919050565b60008190508160005260206000209050919050565b60006020601f8301049050919050565b600082821b905092915050565b6000600883026114c07fffffffffffffffffffffffffffffffffffffffffffffffffffffffffffffffff82611483565b6114ca8683611483565b95508019841693508086168417925050509392505050565b6000819050919050565b60006115076115026114fd84610cab565b6114e2565b610cab565b9050919050565b6000819050919050565b611521836114ec565b61153561152d8261150e565b848454611490565b825550505050565b600090565b61154a61153d565b611555818484611518565b505050565b5b818110156115795761156e600082611542565b60018101905061155b565b5050565b601f8211156115be5761158f8161145e565b61159884611473565b810160208510156115a7578190505b6115bb6115b385611473565b83018261155a565b50505b505050565b600082821c905092915050565b60006115e1600019846008026115c3565b1980831691505092915050565b60006115fa83836115d0565b9150826002028217905092915050565b61161382610fad565b67ffffffffffffffff81111561162c5761162b610b80565b5b611636825461142d565b61164182828561157d565b600060209050601f8311600181146116745760008415611662578287015190505b61166c85826115ee565b8655506116d4565b601f1984166116828661145e565b60005b828110156116aa57848901518255600182019150602085019450602081019050611685565b868310156116c757848901516116c3601f8916826115d0565b8355505b6001600288020188555050505b505050505050565b7f4e487b7100000000000000000000000000000000000000000000000000000000600052601160045260246000fd5b600061171682610cab565b91507fffffffffffffffffffffffffffffffffffffffffffffffffffffffffffffffff8203611748576117476116dc565b5b600182019050919050565b600061175e82610cab565b915061176983610cab565b9250828203905081811115611781576117806116dc565b5b92915050565b7f54686520646f6e617465206d6f6e6579206d757374206265206772656174657260008201527f207468616e203000000000000000000000000000000000000000000000000000602082015250565b60006117e3602783610fb8565b91506117ee82611787565b604082019050919050565b60006020820190508181036000830152611812816117d6565b9050919050565b7f5468652063616d706169676e2068617320656e64656400000000000000000000600082015250565b600061184f601683610fb8565b915061185a82611819565b602082019050919050565b6000602082019050818103600083015261187e81611842565b9050919050565b600081905092915050565b50565b60006118a0600083611885565b91506118ab82611890565b600082019050919050565b60006118c182611893565b9150819050919050565b60006118d682610cab565b91506118e183610cab565b92508282019050808211156118f9576118f86116dc565b5b92915050565b7f4e487b7100000000000000000000000000000000000000000000000000000000600052603260045260246000fdfea2646970667358221220bb8bc827880e3f54940a8d3bfa494e756ca9d86faf3fd2cc900bce82fe8c832f64736f6c63430008180033",
  "linkReferences": {},
  "deployedLinkReferences": {}
}