{
  "_format": "hh-sol-artifact-1",
  "contractName": "CrowdFunding",
  "sourceName": "contracts/CrowdFunding.sol",
  "abi": [
    {
      "inputs": [
        {
          "internalType": "uint256",
          "name": "",
          "type": "uint256"
        }
      ],
      "name": "campaigns",
      "outputs": [
        {
          "internalType": "address",
          "name": "owner",
          "type": "address"
        },
        {
          "internalType": "string",
          "name": "title",
          "type": "string"
        },
        {
          "internalType": "string",
          "name": "description",
          "type": "string"
        },
        {
          "internalType": "uint256",
          "name": "target",
          "type": "uint256"
        },
        {
          "internalType": "uint256",
          "name": "deadline",
          "type": "uint256"
        },
        {
          "internalType": "uint256",
          "name": "amountCollected",
          "type": "uint256"
        }
      ],
      "stateMutability": "view",
      "type": "function"
    },
    {
      "inputs": [
        {
          "internalType": "address",
          "name": "_owner",
          "type": "address"
        },
        {
          "internalType": "string",
          "name": "_title",
          "type": "string"
        },
        {
          "internalType": "string",
          "name": "_description",
          "type": "string"
        },
        {
          "internalType": "uint256",
          "name": "_target",
          "type": "uint256"
        },
        {
          "internalType": "uint256",
          "name": "_deadline",
          "type": "uint256"
        }
      ],
      "name": "createCampaign",
      "outputs": [
        {
          "internalType": "uint256",
          "name": "",
          "type": "uint256"
        }
      ],
      "stateMutability": "nonpayable",
      "type": "function"
    },
    {
      "inputs": [
        {
          "internalType": "uint256",
          "name": "_id",
          "type": "uint256"
        }
      ],
      "name": "donateToCampaign",
      "outputs": [],
      "stateMutability": "payable",
      "type": "function"
    },
    {
      "inputs": [],
      "name": "getAllCampaigns",
      "outputs": [
        {
          "components": [
            {
              "internalType": "address",
              "name": "owner",
              "type": "address"
            },
            {
              "internalType": "string",
              "name": "title",
              "type": "string"
            },
            {
              "internalType": "string",
              "name": "description",
              "type": "string"
            },
            {
              "internalType": "uint256",
              "name": "target",
              "type": "uint256"
            },
            {
              "internalType": "uint256",
              "name": "deadline",
              "type": "uint256"
            },
            {
              "internalType": "uint256",
              "name": "amountCollected",
              "type": "uint256"
            },
            {
              "internalType": "address[]",
              "name": "donators",
              "type": "address[]"
            },
            {
              "internalType": "uint256[]",
              "name": "donations",
              "type": "uint256[]"
            }
          ],
          "internalType": "struct CrowdFunding.Campaign[]",
          "name": "",
          "type": "tuple[]"
        }
      ],
      "stateMutability": "view",
      "type": "function"
    },
    {
      "inputs": [
        {
          "internalType": "uint256",
          "name": "_id",
          "type": "uint256"
        }
      ],
      "name": "getDonators",
      "outputs": [
        {
          "internalType": "address[]",
          "name": "",
          "type": "address[]"
        },
        {
          "internalType": "uint256[]",
          "name": "",
          "type": "uint256[]"
        }
      ],
      "stateMutability": "view",
      "type": "function"
    },
    {
      "inputs": [],
      "name": "numberOfCampaign",
      "outputs": [
        {
          "internalType": "uint256",
          "name": "",
          "type": "uint256"
        }
      ],
      "stateMutability": "view",
      "type": "function"
    }
  ],
  "bytecode": "0x6080604052600060015534801561001557600080fd5b5061190f806100256000396000f3fe6080604052600436106100555760003560e01c8063075843c31461005a5780630fa91fa914610097578063141961bc146100d557806342a4fda81461011757806386cdf60414610133578063ab4a0b321461015e575b600080fd5b34801561006657600080fd5b50610081600480360381019061007c9190610c8c565b610189565b60405161008e9190610d4e565b60405180910390f35b3480156100a357600080fd5b506100be60048036038101906100b99190610d69565b61029d565b6040516100cc929190610f12565b60405180910390f35b3480156100e157600080fd5b506100fc60048036038101906100f79190610d69565b6103ad565b60405161010e96959493929190610fd7565b60405180910390f35b610131600480360381019061012c9190610d69565b610519565b005b34801561013f57600080fd5b50610148610705565b60405161015591906112f5565b60405180910390f35b34801561016a57600080fd5b50610173610a3d565b6040516101809190610d4e565b60405180910390f35b60008060008060015481526020019081526020016000209050428160040154106101e8576040517f08c379a00000000000000000000000000000000000000000000000000000000081526004016101df90611389565b60405180910390fd5b868160000160006101000a81548173ffffffffffffffffffffffffffffffffffffffff021916908373ffffffffffffffffffffffffffffffffffffffff1602179055508581600101908161023c91906115b5565b508481600201908161024e91906115b5565b50838160030181905550828160040181905550600081600501819055506001600081548092919061027e906116b6565b91905055506001805461029191906116fe565b91505095945050505050565b6060806000808481526020019081526020016000206006016000808581526020019081526020016000206007018180548060200260200160405190810160405280929190818152602001828054801561034b57602002820191906000526020600020905b8160009054906101000a900473ffffffffffffffffffffffffffffffffffffffff1673ffffffffffffffffffffffffffffffffffffffff1681526020019060010190808311610301575b505050505091508080548060200260200160405190810160405280929190818152602001828054801561039d57602002820191906000526020600020905b815481526020019060010190808311610389575b5050505050905091509150915091565b60006020528060005260406000206000915090508060000160009054906101000a900473ffffffffffffffffffffffffffffffffffffffff16908060010180546103f6906113d8565b80601f0160208091040260200160405190810160405280929190818152602001828054610422906113d8565b801561046f5780601f106104445761010080835404028352916020019161046f565b820191906000526020600020905b81548152906001019060200180831161045257829003601f168201915b505050505090806002018054610484906113d8565b80601f01602080910402602001604051908101604052809291908181526020018280546104b0906113d8565b80156104fd5780601f106104d2576101008083540402835291602001916104fd565b820191906000526020600020905b8154815290600101906020018083116104e057829003601f168201915b5050505050908060030154908060040154908060050154905086565b6000341161055c576040517f08c379a0000000000000000000000000000000000000000000000000000000008152600401610553906117a4565b60405180910390fd5b600034905060008060008481526020019081526020016000209050428160040154116105bd576040517f08c379a00000000000000000000000000000000000000000000000000000000081526004016105b490611810565b60405180910390fd5b80600601339080600181540180825580915050600190039060005260206000200160009091909190916101000a81548173ffffffffffffffffffffffffffffffffffffffff021916908373ffffffffffffffffffffffffffffffffffffffff1602179055508060070182908060018154018082558091505060019003906000526020600020016000909190919091505560008160000160009054906101000a900473ffffffffffffffffffffffffffffffffffffffff1673ffffffffffffffffffffffffffffffffffffffff168360405161069790611861565b60006040518083038185875af1925050503d80600081146106d4576040519150601f19603f3d011682016040523d82523d6000602084013e6106d9565b606091505b5050905080156106ff57828260050160008282546106f79190611876565b925050819055505b50505050565b6060600060015467ffffffffffffffff81111561072557610724610b2b565b5b60405190808252806020026020018201604052801561075e57816020015b61074b610a43565b8152602001906001900390816107435790505b50905060005b600154811015610a3557600080828152602001908152602001600020604051806101000160405290816000820160009054906101000a900473ffffffffffffffffffffffffffffffffffffffff1673ffffffffffffffffffffffffffffffffffffffff1673ffffffffffffffffffffffffffffffffffffffff1681526020016001820180546107f2906113d8565b80601f016020809104026020016040519081016040528092919081815260200182805461081e906113d8565b801561086b5780601f106108405761010080835404028352916020019161086b565b820191906000526020600020905b81548152906001019060200180831161084e57829003601f168201915b50505050508152602001600282018054610884906113d8565b80601f01602080910402602001604051908101604052809291908181526020018280546108b0906113d8565b80156108fd5780601f106108d2576101008083540402835291602001916108fd565b820191906000526020600020905b8154815290600101906020018083116108e057829003601f168201915b50505050508152602001600382015481526020016004820154815260200160058201548152602001600682018054806020026020016040519081016040528092919081815260200182805480156109a957602002820191906000526020600020905b8160009054906101000a900473ffffffffffffffffffffffffffffffffffffffff1673ffffffffffffffffffffffffffffffffffffffff168152602001906001019080831161095f575b5050505050815260200160078201805480602002602001604051908101604052809291908181526020018280548015610a0157602002820191906000526020600020905b8154815260200190600101908083116109ed575b505050505081525050828281518110610a1d57610a1c6118aa565b5b60200260200101819052508080600101915050610764565b508091505090565b60015481565b604051806101000160405280600073ffffffffffffffffffffffffffffffffffffffff168152602001606081526020016060815260200160008152602001600081526020016000815260200160608152602001606081525090565b6000604051905090565b600080fd5b600080fd5b600073ffffffffffffffffffffffffffffffffffffffff82169050919050565b6000610add82610ab2565b9050919050565b610aed81610ad2565b8114610af857600080fd5b50565b600081359050610b0a81610ae4565b92915050565b600080fd5b600080fd5b6000601f19601f8301169050919050565b7f4e487b7100000000000000000000000000000000000000000000000000000000600052604160045260246000fd5b610b6382610b1a565b810181811067ffffffffffffffff82111715610b8257610b81610b2b565b5b80604052505050565b6000610b95610a9e565b9050610ba18282610b5a565b919050565b600067ffffffffffffffff821115610bc157610bc0610b2b565b5b610bca82610b1a565b9050602081019050919050565b82818337600083830152505050565b6000610bf9610bf484610ba6565b610b8b565b905082815260208101848484011115610c1557610c14610b15565b5b610c20848285610bd7565b509392505050565b600082601f830112610c3d57610c3c610b10565b5b8135610c4d848260208601610be6565b91505092915050565b6000819050919050565b610c6981610c56565b8114610c7457600080fd5b50565b600081359050610c8681610c60565b92915050565b600080600080600060a08688031215610ca857610ca7610aa8565b5b6000610cb688828901610afb565b955050602086013567ffffffffffffffff811115610cd757610cd6610aad565b5b610ce388828901610c28565b945050604086013567ffffffffffffffff811115610d0457610d03610aad565b5b610d1088828901610c28565b9350506060610d2188828901610c77565b9250506080610d3288828901610c77565b9150509295509295909350565b610d4881610c56565b82525050565b6000602082019050610d636000830184610d3f565b92915050565b600060208284031215610d7f57610d7e610aa8565b5b6000610d8d84828501610c77565b91505092915050565b600081519050919050565b600082825260208201905092915050565b6000819050602082019050919050565b610dcb81610ad2565b82525050565b6000610ddd8383610dc2565b60208301905092915050565b6000602082019050919050565b6000610e0182610d96565b610e0b8185610da1565b9350610e1683610db2565b8060005b83811015610e47578151610e2e8882610dd1565b9750610e3983610de9565b925050600181019050610e1a565b5085935050505092915050565b600081519050919050565b600082825260208201905092915050565b6000819050602082019050919050565b610e8981610c56565b82525050565b6000610e9b8383610e80565b60208301905092915050565b6000602082019050919050565b6000610ebf82610e54565b610ec98185610e5f565b9350610ed483610e70565b8060005b83811015610f05578151610eec8882610e8f565b9750610ef783610ea7565b925050600181019050610ed8565b5085935050505092915050565b60006040820190508181036000830152610f2c8185610df6565b90508181036020830152610f408184610eb4565b90509392505050565b610f5281610ad2565b82525050565b600081519050919050565b600082825260208201905092915050565b60005b83811015610f92578082015181840152602081019050610f77565b60008484015250505050565b6000610fa982610f58565b610fb38185610f63565b9350610fc3818560208601610f74565b610fcc81610b1a565b840191505092915050565b600060c082019050610fec6000830189610f49565b8181036020830152610ffe8188610f9e565b905081810360408301526110128187610f9e565b90506110216060830186610d3f565b61102e6080830185610d3f565b61103b60a0830184610d3f565b979650505050505050565b600081519050919050565b600082825260208201905092915050565b6000819050602082019050919050565b600082825260208201905092915050565b600061108e82610f58565b6110988185611072565b93506110a8818560208601610f74565b6110b181610b1a565b840191505092915050565b600082825260208201905092915050565b60006110d882610d96565b6110e281856110bc565b93506110ed83610db2565b8060005b8381101561111e5781516111058882610dd1565b975061111083610de9565b9250506001810190506110f1565b5085935050505092915050565b600082825260208201905092915050565b600061114782610e54565b611151818561112b565b935061115c83610e70565b8060005b8381101561118d5781516111748882610e8f565b975061117f83610ea7565b925050600181019050611160565b5085935050505092915050565b6000610100830160008301516111b36000860182610dc2565b50602083015184820360208601526111cb8282611083565b915050604083015184820360408601526111e58282611083565b91505060608301516111fa6060860182610e80565b50608083015161120d6080860182610e80565b5060a083015161122060a0860182610e80565b5060c083015184820360c086015261123882826110cd565b91505060e083015184820360e0860152611252828261113c565b9150508091505092915050565b600061126b838361119a565b905092915050565b6000602082019050919050565b600061128b82611046565b6112958185611051565b9350836020820285016112a785611062565b8060005b858110156112e357848403895281516112c4858261125f565b94506112cf83611273565b925060208a019950506001810190506112ab565b50829750879550505050505092915050565b6000602082019050818103600083015261130f8184611280565b905092915050565b7f54686520646561646c696e65206d75737420626520696e20746865206675747560008201527f7265000000000000000000000000000000000000000000000000000000000000602082015250565b6000611373602283610f63565b915061137e82611317565b604082019050919050565b600060208201905081810360008301526113a281611366565b9050919050565b7f4e487b7100000000000000000000000000000000000000000000000000000000600052602260045260246000fd5b600060028204905060018216806113f057607f821691505b602082108103611403576114026113a9565b5b50919050565b60008190508160005260206000209050919050565b60006020601f8301049050919050565b600082821b905092915050565b60006008830261146b7fffffffffffffffffffffffffffffffffffffffffffffffffffffffffffffffff8261142e565b611475868361142e565b95508019841693508086168417925050509392505050565b6000819050919050565b60006114b26114ad6114a884610c56565b61148d565b610c56565b9050919050565b6000819050919050565b6114cc83611497565b6114e06114d8826114b9565b84845461143b565b825550505050565b600090565b6114f56114e8565b6115008184846114c3565b505050565b5b81811015611524576115196000826114ed565b600181019050611506565b5050565b601f8211156115695761153a81611409565b6115438461141e565b81016020851015611552578190505b61156661155e8561141e565b830182611505565b50505b505050565b600082821c905092915050565b600061158c6000198460080261156e565b1980831691505092915050565b60006115a5838361157b565b9150826002028217905092915050565b6115be82610f58565b67ffffffffffffffff8111156115d7576115d6610b2b565b5b6115e182546113d8565b6115ec828285611528565b600060209050601f83116001811461161f576000841561160d578287015190505b6116178582611599565b86555061167f565b601f19841661162d86611409565b60005b8281101561165557848901518255600182019150602085019450602081019050611630565b86831015611672578489015161166e601f89168261157b565b8355505b6001600288020188555050505b505050505050565b7f4e487b7100000000000000000000000000000000000000000000000000000000600052601160045260246000fd5b60006116c182610c56565b91507fffffffffffffffffffffffffffffffffffffffffffffffffffffffffffffffff82036116f3576116f2611687565b5b600182019050919050565b600061170982610c56565b915061171483610c56565b925082820390508181111561172c5761172b611687565b5b92915050565b7f54686520646f6e617465206d6f6e6579206d757374206265206772656174657260008201527f207468616e203000000000000000000000000000000000000000000000000000602082015250565b600061178e602783610f63565b915061179982611732565b604082019050919050565b600060208201905081810360008301526117bd81611781565b9050919050565b7f5468652063616d706169676e2068617320656e64656400000000000000000000600082015250565b60006117fa601683610f63565b9150611805826117c4565b602082019050919050565b60006020820190508181036000830152611829816117ed565b9050919050565b600081905092915050565b50565b600061184b600083611830565b91506118568261183b565b600082019050919050565b600061186c8261183e565b9150819050919050565b600061188182610c56565b915061188c83610c56565b92508282019050808211156118a4576118a3611687565b5b92915050565b7f4e487b7100000000000000000000000000000000000000000000000000000000600052603260045260246000fdfea2646970667358221220310096f2055e3e178f56dbe68df84634f631057035ba6ff837ea033d5e390c2464736f6c63430008180033",
  "linkReferences": {},
  "deployedLinkReferences": {}
}